:100000000C943E000C945B000C945B000C949E02DC
:100010000C945B000C945B000C945B000C945B00F4
:100020000C945B000C945B000C945B000C945B00E4
:100030000C945B000C945B000C945B000C945B00D4
:100040000C945B000C945B000C945B000C945B00C4
:100050000C945B000C945B000C945B000C945B00B4
:100060000C945B000C945B000C945B000C945B00A4
:100070000C945B000C945B000C945B0011241FBE7D
:10008000CFEFCDBFDFE3DEBF18E3A0E0B8E3EFE8DA
:10009000F1E102C005900D92A830B107D9F728E32D
:1000A000A8E0B8E301C01D92AA30B207E1F70E94B0
:1000B00075070C94CA070C940000EF92FF920F93FF
:1000C0001F93CF93DF93CDB7DEB72697CDBFDEBFAB
:1000D0008D839E838D819E81FC0187819085A18582
:1000E000B28589839A83AB83BC838D819E81FC0119
:1000F0008281282F30E089819A81AB81BC817C018B
:100100008D0104C016950795F794E7942A95D2F7C8
:10011000A801970189819A81AB81BC812827392761
:100120004A275B278D819E81FC0183819481A58173
:10013000B68182239323A423B52389839A83AB8337
:10014000BC838D819E81FC018081282F30E08981D4
:100150009A81AB81BC817C018D0104C01695079505
:10016000F794E7942A95D2F7A801970189819A819B
:10017000AB81BC81282739274A275B278D819E8147
:10018000FC0183819481A581B68182239323A423DA
:10019000B52389839A83AB83BC838D819E81FC01C7
:1001A0008181282F30E089819A81AB81BC817C01DB
:1001B0008D0104C0EE0CFF1C001F111F2A95D2F701
:1001C000A801970189819A81AB81BC8128273927B1
:1001D0004A275B278D819E81FC0183819481A581C3
:1001E000B68182239323A423B52389839A83AB8387
:1001F000BC832D813E8189819A81AB81BC81F901CB
:1002000087839087A187B287898181702696CDBF29
:10021000DEBFDF91CF911F910F91FF90EF90089576
:10022000CF93DF9300D01F92CDB7DEB789836A8367
:100230004B839A818B81982B898198232A818B818A
:100240008223892B2396CDBFDEBFDF91CF91089506
:10025000CF93DF9300D0CDB7DEB789839A838981AE
:100260009A812BE0E8E9FFE0DC0101900D922A95EC
:10027000E1F789819A812BE0E3EAFFE0DC011B963C
:1002800001900D922A95E1F789819A812BE0EEEA9F
:10029000FFE0DC01569601900D922A95E1F70000EF
:1002A0000F900F90DF91CF9108950F931F93CF93ED
:1002B000DF9300D0CDB7DEB789839A8389819A8195
:1002C00046960E945D00082F89819A810B960E94B4
:1002D0005D00182F89819A810E945D00402F612F57
:1002E0000E9410010F900F90DF91CF911F910F91FD
:1002F0000895CF93DF93CDB7DEB72597CDBFDEBF8F
:100300008C839D8319821A821B8210C08981880F79
:1003100089838C819D810E945501982F8981892B29
:1003200089838A819B8101968A839B838A819B81B1
:10033000089764F389812596CDBFDEBFDF91CF9109
:100340000895CF93DF9300D01F92CDB7DEB7898396
:100350009A836B8389819A81FC0180819181AC01B0
:100360004F5F5F4F29813A81F9014083518340916A
:100370000038509101382B8122952F70222F30E0C8
:10038000240F351FF9012081FC01208389819A8186
:10039000FC0180819181AC014F5F5F4F29813A81DF
:1003A000F9014083518340910038509101382B81ED
:1003B000222F30E02F703327240F351FF9012081C1
:1003C000FC01208300002396CDBFDEBFDF91CF91DB
:1003D00008951F93CF93DF93CDB7DEB7E497CDBFDA
:1003e000debf8da79ea76fa778ab49ab5aab2babef
:1003F0003CAB80910238909103380E94C1078887F6
:100400009987809102389091033889839A831B825F
:100410001C8217C08BA99CA99C012F5F3F4F2BAB5F
:100420003CAB29813A81A9014F5F5F4F49835A83D1
:10043000F9012081FC0120838B819C8101968B83B3
:100440009C832B813C81888599852817390710F377
:100450001D82CE010C960E9428011E821F8250C070
:1004600089A99AA99C012F5F3F4F29AB3AABFC01A8
:1004700080818A8789A99AA99C012F5F3F4F29AB68
:100480003AABFC0180818B879D818A8589278D838A
:100490008FA598A99C012F5F3F4F2FA738ABFC0178
:1004A00090818B85192F1827CE010C960E94790117
:1004B000212F2827CE01C396622F0E94A1019B8580
:1004C0008D81192F1827CE010C960E947901212FBA
:1004D0002827CE01C396622F0E94A101CE010C965F
:1004E0000E947901982F8A85292F2827CE01C3964B
:1004F000622F0E94A1018E819F8101968E839F832E
:100500002E813F818DA59EA52817390708F4A8CF15
:100510008BA99CA99C012F5F3F4F2BAB3CAB2DE7D8
:10052000FC0120838BA99CA9FC0110820000E496A9
:10053000CDBFDEBFDF91CF911F9108951F920F9223
:100540000FB60F9211248F93EF93FF938091093888
:100550008F5F80930938E0E0F4E0818582608187D5
:10056000FF91EF918F910F900FBE0F901F901895F4
:10057000A0E2B4E014968C911497807F14968C932B
:100580001497E0E0F4E08481817084832FE880EDAB
:1005900093E0215080409040E1F700C000001496A5
:1005A0008C9114978F6014968C9384818E6F8483C2
:1005B0002FE880ED93E0215080409040E1F700C0AB
:1005C000000008957894E0E5F0E08081897F8083E1
:1005D00080818160808388950895A0E2B4E01496BC
:1005E0008C911497807F14968C931497E0E0F4E03C
:1005F0008481817084832FE880ED93E021508040D6
:100600009040E1F700C0000014968C9114978F6021
:1006100014968C9384818E6F84832FE880ED93E011
:10062000215080409040E1F700C000000895E4E0D0
:10063000F4E0808180818860808380818081846013
:1006400080838081808182608083A4E2B4E08C9189
:100650008C9181608C938C918C9182608C938C9125
:100660008C918B7F8C938C918C9188608C93808102
:1006700080818068808380818081806480838081A4
:1006800080818062808380818081806180832FE986
:1006900086E891E0215080409040E1F700C00000E2
:1006A0008081808188608083808180818460808374
:1006B00080818081826080838C918C9181608C9319
:1006C0008C918C918D7F8C938C918C9184608C9388
:1006D0008C918C91877F8C938081808180688083CE
:1006E000808180818064808380818081806280833A
:1006F00080818081806180832FE986E891E02150AC
:1007000080409040E1F700C00000808180818860D7
:100710008083808180818460808380818081826009
:1007200080838C918C918E7F8C938C918C91826044
:100730008C938C918C9184608C938C918C9188603B
:100740008C93808180818F77808380818081806499
:1007500080838081808180628083808180818061CC
:1007600080832FE986E891E0215080409040E1F7B6
:1007700000C00000808180818860808380818081CA
:1007800084608083808180818D7F80838C918C9137
:1007900081608C938C918C9182608C938C918C91E4
:1007A00084608C938C918C9188608C938081808103
:1007B00080688083808180818F7B8083808180813D
:1007C0008062808380818081806180832FE986E8D8
:1007D00091E0215080409040E1F700C0000080810E
:1007E000808188608083808180818B7F808380810D
:1007F0008081826080838C918C9181608C938C91BC
:100800008C9182608C938C918C9184608C938C9170
:100810008C9188608C9380818081806880838081C6
:10082000808180648083808180818F7D80838081CE
:100830008081806180832FE986E891E021508040AB
:100840009040E1F700C0000080818081877F808335
:1008500080818081846080838081808182608083C8
:100860008C918C9181608C938C918C9182608C9313
:100870008C918C9184608C938C918C9188608C93FA
:100880008081808180688083808180818064808392
:100890008081808180628083808180818F7E80835F
:1008A0002FE986E891E0215080409040E1F700C0B8
:1008B00000000895E4E0F4E080818081877F8083F8
:1008C000808180818B7F8083808180818D7F808308
:1008D000A4E2B4E08C918C918E7F8C938C918C915E
:1008E0008D7F8C938C918C918B7F8C938C918C9140
:1008F000877F8C93808180818F77808380818081C6
:100900008F7B8083808180818F7D808380818081C7
:100910008F7E808380910638909107380197F1F798
:1009200080818081886080838081808184608083F1
:1009300080818081826080838C918C9181608C9396
:100940008C918C9182608C938C918C9184608C932F
:100950008C918C9188608C93808180818068808369
:1009600080818081806480838081808180628083B7
:1009700080818081806180832091063830910738A2
:1009800080E293E0821B930B0197F1F78091083886
:1009900081110DC02F5F3F4F2093063830930738E9
:1009A0002F31334078F081E080930838089521504A
:1009B000310920930638309307382230310510F47E
:1009C000109208380895E4E0F4E080818081886026
:1009D0008083808180818460808380818081826047
:1009E0008083A4E2B4E08C918C9181608C938C9193
:1009F0008C9182608C938C918C9184608C938C917F
:100A00008C9188608C9380818081806880838081D4
:100A10008081806480838081808180628083808106
:100A200080818061808383E294EF0197F1F700C0B9
:100A3000000080818081877F8083808180818460C5
:100A4000808380818081826080838C918C918160A1
:100A50008C938C918C9182608C938C918C9184601E
:100A60008C938C918C9188608C938081808180683C
:100A700080838081808180648083808180818062A6
:100A80008083808180818061808383E294EF0197FD
:100A9000F1F700C0000080818081886080838081C0
:100AA00080818B7F808380818081826080838C9134
:100AB0008C9181608C938C918C9182608C938C91C1
:100AC0008C9184608C938C918C9188608C938081C4
:100AD0008081806880838081808180648083808140
:100AE000808180628083808180818061808383E2D5
:100AF00094EF0197F1F700C0000080818081886049
:100B000080838081808184608083808180818D7FEB
:100B100080838C918C9181608C938C918C9182607C
:100B20008C938C918C9184608C938C918C91886047
:100B30008C938081808180688083808180818064C3
:100B400080838081808180628083808180818061D8
:100B5000808383E294EF0197F1F700C00000808169
:100B600080818860808380818081846080838081AF
:100B70008081826080838C918C918E7F8C938C910C
:100B80008C9182608C938C918C9184608C938C91ED
:100B90008C9188608C938081808180688083808143
:100BA0008081806480838081808180628083808175
:100BB00080818061808383E294EF0197F1F700C028
:100BC0000000808180818860808380818081846052
:100BD000808380818081826080838C918C91816010
:100BE0008C938C918C918D7F8C938C918C91846063
:100BF0008C938C918C9188608C93808180818068AB
:100C00008083808180818064808380818081806214
:100C10008083808180818061808383E294EF01976B
:100C2000F1F700C00000808180818860808380812E
:100C300080818460808380818081826080838C91C8
:100C40008C9181608C938C918C9182608C938C912F
:100C50008C918B7F8C938C918C9188608C9380810C
:100C600080818068808380818081806480838081AE
:100C7000808180628083808180818061808383E243
:100C800094EF0197F1F700C00000808180818860B7
:100C90008083808180818460808380818081826084
:100CA00080838C918C9181608C938C918C918260EB
:100CB0008C938C918C9184608C938C918C91877F98
:100CC0008C93808180818068808380818081806432
:100CD0008083808180818062808380818081806147
:100CE000808383E294EF0197F1F700C000008081D8
:100CF000808188608083808180818460808380811E
:100D00008081826080838C918C9181608C938C91A6
:100D10008C9182608C938C918C9184608C938C915B
:100D20008C9188608C93808180818F778083808193
:100D300080818064808380818081806280838081E3
:100D400080818061808383E294EF0197F1F700C096
:100D500000008081808188608083808180818460C0
:100D6000808380818081826080838C918C9181607E
:100D70008C938C918C9182608C938C918C918460FB
:100D80008C938C918C9188608C9380818081806819
:100D90008083808180818F7B80838081808180625D
:100DA0008083808180818061808383E294EF0197DA
:100DB000F1F700C00000808180818860808380819D
:100DC00080818460808380818081826080838C9137
:100DD0008C9181608C938C918C9182608C938C919E
:100DE0008C9184608C938C918C9188608C938081A1
:100DF000808180688083808180818064808380811D
:100E000080818F7D8083808180818061808383E287
:100E100094EF0197F1F700C0000080818081886025
:100E200080838081808184608083808180818260F2
:100E300080838C918C9181608C938C918C91826059
:100E40008C938C918C9184608C938C918C91886024
:100E50008C938081808180688083808180818064A0
:100E600080838081808180628083808180818F7E89
:100E7000808383E294EF0197F1F700C00000808146
:100E80008081877F8083808180818B7F8083808148
:100E900080818D7F80838C918C918E7F8C938C91BF
:100EA0008C918D7F8C938C918C918B7F8C938C917A
:100EB0008C91877F8C93808180818F7780838081E4
:100EC00080818F7B8083808180818F7D8083808102
:100ED00080818F7E80839FE926E881E091502040C9
:100EE0008040E1F700C000000895F894E0E0F4E0ED
:100EF00080818E7F8083A0E2B4E08C918F608C93A0
:100F000080818E6F808314968C9114978F601496D5
:100F10008C9384818E6F848380898860808B8089A4
:100F20008360808BE0E5F0E0808180838081816058
:100F30008083789480910938853010F010920938B8
:100F400080910938823089F028F4882341F081307B
:100F500049F014C0833061F0843069F00FC00E9402
:100F6000E202E8CF0E94ED02E5CF0E941703E2CF34
:100F70000E945A04DFCF0E94E304DCCF0E94E20209
:100F8000D9CFFC0101900020E9F7809590958E0F54
:100F90009F1F0895F894FFCF02050DFFFF0000ADDD
:100FA0008B0000050B0BFFFF00000DF000000E0D85
:100FB0000FFFFFFFFFBEBAFECA3031323334353681
:100FC000373839616263646566004A494747594367
:100FD00049504845527B004A494747594349504880
:100FE00045527B61313535376433383031643737BA
:100FF00032336633643338353131316438356364C4
:1010000031323536323563633236306261373664B9
:10101000333035316135646536666632343738369B
:101020006238666337306331363539616134633431
:101030003162393135316338656566373064343350
:10104000383531356136363432353632616239669B
:101050003034303366323736626135353661373495
:101060003239383239343333643235373234383404
:1010700066323538353731396434363839363438B4
:101080003332616231613235383532316635363866
:10109000313635633361623162656164313436659E
:1010A00063643264653635613564383132623533B4
:1010B00063613563313638343733626163383935CB
:1010C00064346138626333373339306638363062BE
:1010D00031316536613665623434326332343931E8
:1010E00038306139633333373238353435356162FE
:1010F00030393864343762373236346563343262BB
:1011000065643736383864353964636466646463AB
:10111000663364306465363734333536636265650B
:1011200032323534376530383763363362653532BD
:1011300030313364633331393630306334613438BD
:101140003539373838616238373334396336633884
:1011500031656139353938313237663837303933AE
:1011600063313438633164336539346564656135BE
:101170003031333266333234656166356363383813
:10118000623633623866616332306366367D00B939
:101190000FCA0FD70F0100FFFFFFFFFFFFFFFFFF89
:1011A000FFFFFFFFFFFFFFFFFFFFFFFFFFFFFFFF4F
:1011B000FFFFFFFFFFFFFFFFFFFFFFFFFFFFFFFF3F
:1011C000FFFFFFFFFFFFFFFFFFFFFFFFFFFFFFFF2F
:1011D000FFFFFFFFFFFFFFFFFFFFFFFFFFFFFFFF1F
:10380000B90FCA0FD70FFFFFFFFFFFFFFFFFFFFF3B
:10381000FFFFFFFFFFFFFFFFFFFFFFFFFFFFFFFFB8
:10382000FFFFFFFFFFFFFFFFFFFFFFFFFFFFFFFFA8
:10383000FFFFFFFFFFFFFFFFFFFFFFFFFFFFFFFF98
:10384000FFFFFFFFFFFFFFFFFFFFFFFFFFFFFFFF88
:00000001FF
